:107000000C9434380C9451380C9451380C945138F9
:107010000C9451380C9451380C9451380C945138CC
:107020000C9451380C9451380C9451380C94A63867
:107030000C9451380C9451380C9451380C945138AC
:107040000C9451380C9451380C9482380C945E385E
:107050000C9453380C9451380C9451380C9451388A
:107060000C9451380C94513811241FBECFEFD8E046
:10707000DEBFCDBF11E0A0E0B1E0E0EBF5E702C07C
:1070800005900D92A230B107D9F723E0A2E0B1E05C
:1070900001C01D92AF31B207E1F70E94CA380C94CB
:1070A000D63A0C9400381F920F920FB60F9211240B
:1070B00043980F900FBE0F901F9018951F920F923C
:1070C0000FB60F9211242F933F934F935F936F93BB
:1070D0007F938F939F93AF93BF93EF93FF930E9400
:1070E0003D3AFF91EF91BF91AF919F918F917F9129
:1070F0006F915F914F913F912F910F900FBE0F9025
:107100001F9018951F920F920FB60F9211242F9374
:107110003F934F935F936F937F938F939F93AF931F
:10712000BF93EF93FF930E94F439FF91EF91BF91CA
:10713000AF919F918F917F916F915F914F913F910F
:107140002F910F900FBE0F901F9018951F920F92C6
:107150000FB60F9211242F933F934F935F936F932A
:107160007F938F939F93AF93BF93EF93FF930E946F
:10717000733AFF91EF91BF91AF919F918F917F9162
:107180006F915F914F913F912F910F900FBE0F9094
:107190001F901895F89481E085BF82E085BF7894B0
:1071A00014B88FEF85B93B9A43983C9A44983D9A1E
:1071B00087E080930C01F8948091C20086608093F0
:1071C000C2008091C00082608093C0008FEC8093E9
:1071D000C4001092C5008091C10080618093C100FD
:1071E0008091C1008F768093C1008091C1008F7D16
:1071F0008093C1008FE190E090930B0180930A018E
:107200001092800010928100109282008091810083
:107210008A7F8093810080916F008D7F80936F00C3
:10722000B19A60E081E00E94983A0E94B93A78945D
:10723000A8959EE088E10FB6F894A8958093600029
:107240000FBE90936000E7E1F1E080E090E020E085
:1072500030E02193319301962F5F3E4F80349105AA
:10726000C1F781E090E09093980180939701EE241C
:10727000E39431E1D32E43E0C42E55E0B52E63E014
:1072800070E0E0E1FE2EE0911701F09118012091ED
:1072900097013091980111E02F3F8FE0380708F4F3
:1072A00010E001E02115310509F000E0A9014E5F71
:1072B0005F4FA89580910F019091100101969093D6
:1072C000100180930F017093120160931101F093EC
:1072D0001401E0931301A7E1B1E085E090E0883468
:1072E000910551F0CD91DD91CD2B21F090931601B8
:1072F000809315010196F3CF9093070180930601C7
:1073000081E01C9B80E0802311F4112329F0D092AE
:107310005700E8950C9400002115310551F2509367
:107320000901409308014330510509F0C2CFF89498
:107330004091080150910901FA01C0925700E89567
:1073400007B600FCFDCF0091000110910101E09112
:107350000401F0910501C0910201D0910301409F09
:10736000C001419F900D509F900D1124880F991FCF
:10737000ADE0B1E020E030E08D50914020173107C2
:1073800080F4FC01EA0FFB1F1A96CD91DC911B974C
:107390000E01E0925700E89511242F5F3F4F12969F
:1073A000EDCFF0930501E0930401D0930301C09366
:1073B00002013093070120930601FA01B0925700B1
:1073C000E89507B600FCFDCF789480910801909174
:1073D000090101969093120180931101439953CFB3
:1073E00088B18F2588B94FCF9091C60080911B023C
:1073F000813061F028F0823011F1833021F008955E
:107400000E94B93A08950E94B93A0895109216025E
:10741000109215022091150230911602A9014F5FBA
:107420005F4F5093160240931502F901E15EFD4F44
:10743000908382E080931B020E94B93A08952091C4
:107440001502309116022F3F310509F080F420918A
:10745000150230911602A9014F5F5F4F509316023B
:1074600040931502F901E15EFD4F908303C083E074
:1074700080931B020E94B93A089580911C028823D0
:1074800019F0813031F0089560E081E00E94983A6F
:1074900008958091170290911802892BD1F0E09104
:1074A0001902F0911A0280818093C600809119021E
:1074B00090911A02019690931A028093190280917A
:1074C0001702909118020197909318028093170267
:1074D000089583E00E94923A60E081E00E94983A29
:1074E00010921C02089580911B02882319F08230AB
:1074F00029F007C080E00E94923A03C081E00E9418
:10750000923AE1E8F0E080818A7F8083EFE6F0E064
:1075100080818D7F808386B3826086BB81E080938B
:107520001B02089591E090931D0280931E0208951E
:10753000E1ECF0E0908198649083882321F08081D1
:107540008069808305C0E1ECF0E080818F768083E4
:10755000662349F0E1ECF0E080818862808388B1A5
:10756000886088B90895E1ECF0E080818F7D8083A8
:107570000895109285001092840080910A019091E4
:107580000B01892B69F0EFE6F0E080818260808357
:1075900080910A0190910B0190938900809388005B
:1075A000E1E8F0E08081856080830895F894FFCF62
:0275B000400099
:040000030000700089
:00000001FF
