S0200000626F6F746C6F616465725F6D6567613332385F6D623438352E7372656374
S11370000C9434380C9446380C9446380C94463816
S11370100C9446380C9446380C9446380C944638F4
S11370200C9446380C9446380C9446380C949B388F
S11370300C9446380C9446380C9446380C944638D4
S11370400C9446380C9446380C9477380C94533886
S11370500C9448380C9446380C9446380C944638B2
S11370600C9446380C94463811241FBECFEFD8E058
S1137070DEBFCDBF23E0A0E0B1E001C01D92A0328D
S1137080B207E1F70E94BF380C94093C0C94003815
S11370901F920F920FB60F92112443980F900FBEB8
S11370A00F901F9018951F920F920FB60F921124F4
S11370B02F933F934F935F936F937F938F939F93FC
S11370C0AF93BF93EF93FF930E94623BFF91EF91C5
S11370D0BF91AF919F918F917F916F915F914F91EC
S11370E03F912F910F900FBE0F901F9018951F92F4
S11370F00F920FB60F9211242F933F934F935F93E8
S11371006F937F938F939F93AF93BF93EF93FF936B
S11371100E94193BFF91EF91BF91AF919F918F9185
S11371207F916F915F914F913F912F910F900FBE7F
S11371300F901F9018951F920F920FB60F92112463
S11371402F933F934F935F936F937F938F939F936B
S1137150AF93BF93EF93FF930E94983BFF91EF91FE
S1137160BF91AF919F918F917F916F915F914F915B
S11371703F912F910F900FBE0F901F901895F89488
S113718081E085BF82E085BF789414B88FEF85B91C
S113719087B987E080930801F8948091C2008660E3
S11371A08093C2008091C00082608093C0008FEC05
S11371B08093C4001092C5008091C10080618093C7
S11371C0C1008091C1008F768093C1008091C1007D
S11371D08F7D8093C1008FE190E0909307018093AD
S11371E0060110928000109281001092820080911A
S11371F081008A7F8093810080916F008D7F8093CE
S11372006F00B19A60E081E00E94CB3B0E94EC3BAE
S11372107894A89598E288E10FB6F894A89580939D
S113722060000FBE90936000E3E1F1E080E090E045
S113723020E030E02193319301962F5F3E4F80345C
S11372409105C1F7909301018093000181E090E0E2
S11372509093940180939301C1E0D1E113E005E0A0
S11372600E94F3398111FCCFA89580910B01909174
S11372700C01019690930C0180930B0180911301F2
S1137280909114019093100180930F01E3E1F1E0D8
S113729085E090E08834910551F021913191232BC0
S11372A021F090931201809311010196F3CF9093F2
S11372B0010180930001809193019091940131E048
S11372C01C9B30E021E0009709F020E0232321F407
S11372D08F3F2FE0920728F0D0935700E8950C9445
S11372E00000009709F4BCCF0197909303018093A9
S11372F0020120910D0130910E018217930709F0CC
S1137300AFCF9695982F88279795879590930501E9
S113731080930401F8942091040130910501F9014E
S113732010935700E89507B600FCFDCFA9E0B1E043
S113733080E090E0B90169507140FB01EA0FFB1F46
S11373401A964D915C911B970A01C0935700E895DA
S11373501124019612968034910579F790930101D6
S113736080930001F90100935700E89507B600FCEB
S1137370FDCF78948091020190910301019690933E
S11373800E0180930D0143996BCF98B180E1892759
S113739088B964CFDC01660F771FFB01E75FFE4FFE
S11373A041155105F1F0211108C081818C93808130
S11373B011968C931197129610C0213071F48C9110
S11373C090E0982F88279183808311963C911197A0
S11373D0830F911D918380831296415051093296F7
S11373E0DFCF80E008951F93CF93DF931F92CDB733
S11373F0DEB7CE0101960E94BD3B8981813019F030
S11374008230D1F03BC041E152E063E172E085E1BA
S113741092E00E94933A182F91E0209115028091F6
S11374200801281390E081E0111180E0892339F1EB
S113743082E00E94B73B23C0E0911302F091140252
S11374409081933031F461E172E0CF010E947B3A84
S113745007C0903129F461E172E0CF010E94663ADD
S11374604091110250911202609113027091140222
S1137470809108010E94CB3A182F01C017E0812F98
S11374800F90DF91CF911F910895DC0140E050E00F
S11374908FEF9FEF17C0FD01E40FF51F20818227B6
S11374A020E00CC080FF07C09695879531E08327C4
S11374B030EA932702C0969587952F5F283090F382
S11374C04F5F5F4F4617570730F30895CF93DF930D
S11374D0EB0121E041E450E065E070E006960E9493
S11374E0CA39811104C085E090E09983888380E0E3
S11374F0DF91CF910895CF93DF93EB0123E0FC015B
S1137500208328E0218320E044E050E061E070E043
S113751002960E94CA398AE090E09983888380E0C9
S1137520DF91CF910895EF92FF920F931F93CF9322
S1137530DF93F8942091160230911702243031051C
S1137540F8F07A018B01EC01609116027091170238
S113755080E292E00E94453A892BA1F480912002B6
S1137560888380911602909117020397F701918303
S1137570808381E292E0F8019183808380E003C0FC
S113758085E001C085E07894DF91CF911F910F9140
S1137590FF90EF900895F89490911C02913009F0B7
S11375A045C0282FCB01019790931B0280931A02A8
S11375B061E070E07093190260931802FC0120836B
S11375C02091180230911902420F531F509319024F
S11375D04093180260911802709119020E94453A72
S11375E0492F2091180230911902B9016F5F7F4F22
S11375F07093190260931802F901E05EFD4F8083D5
S113760080911802909119029C012F5F3F4F309393
S1137610190220931802FC01E05EFD4F408381E0D3
S113762080931D0261E080E00E94CB3B789480E06F
S113763008959091C60080911C02813061F028F079
S1137640823011F1833021F008950E94EC3B0895BB
S11376500E94EC3B0895109217021092160220919A
S1137660160230911702A9014F5F5F4F5093170222
S113767040931602F901E05EFD4F908382E080930F
S11376801C020E94EC3B08952091160230911702CF
S11376902F3F310509F080F4209116023091170232
S11376A0A9014F5F5F4F5093170240931602F901EF
S11376B0E05EFD4F908303C083E080931C020E9430
S11376C0EC3B089580911D02882319F0813031F03C
S11376D0089560E081E00E94CB3B089580911802F8
S11376E090911902892BD1F0E0911A02F0911B02BA
S11376F080818093C60080911A0290911B020196AA
S113770090931B0280931A0280911802909119029F
S113771001979093190280931802089583E00E94C0
S1137720B73B60E081E00E94CB3B10921D020895BC
S113773080911C02882319F0823029F007C080E070
S11377400E94B73B03C081E00E94B73BE1E8F0E050
S113775080818A7F8083EFE6F0E080818D7F808363
S113776086B3826086BB81E080931C02089591E019
S113777090931E0280931F020895FC0190911E02B3
S1137780992339F080911F02808310921E0281E0B8
S1137790089580E00895E1ECF0E09081986490838E
S11377A0882321F080818069808305C0E1ECF0E0CA
S11377B080818F768083662349F0E1ECF0E080815C
S11377C08862808388B1886088B90895E1ECF0E02C
S11377D080818F7D808308951092850010928400AB
S11377E08091060190910701892B69F0EFE6F0E0A2
S11377F0808182608083809106019091070190933B
S1137800890080938800E1E8F0E0808185608083CE
S10978100895F894FFCF77
S90370008C
