S0200000626F6F746C6F616465725F6D6567613332385F6D623438352E7372656374
S11300000C9434000C9451000C9451000C94510045
S11300100C9451000C9451000C9451000C94510018
S11300200C9451000C9451000C9451000C94D50084
S11300300C9451000C9451000C9451000C945100F8
S11300400C9451000C9451000C94A8000C947B0067
S11300500C9453000C9451000C9451000C945100D6
S11300600C9451000C94510011241FBECFEFD8E022
S1130070DEBFCDBF11E0A0E0B1E0E0E4F8E002C0F3
S113008005900D92A230B107D9F723E0A2E0B1E0C8
S113009001C01D92AF31B207E1F70E9402010C9436
S11300A01E040C9400001F920F9200905F000F92A8
S11300B011242F933F938F939F93EF93FF93CF93A9
S11300C0DF93CDB7DEB788E290E028E230E0F901B3
S11300D02081277FFC0120830000DF91CF91FF91D5
S11300E0EF919F918F913F912F910F9000925F001C
S11300F00F901F9018951F920F9200905F000F921F
S113010011242F933F934F935F936F937F938F9318
S11301109F93AF93BF93EF93FF93CF93DF93CDB7A9
S1130120DEB70E9485030000DF91CF91FF91EF912C
S1130130BF91AF919F918F917F916F915F914F91FB
S11301403F912F910F9000925F000F901F90189590
S11301501F920F9200905F000F9211242F933F93F0
S11301604F935F936F937F938F939F93AF93BF93BB
S1130170EF93FF93CF93DF93CDB7DEB70E943C0399
S11301800000DF91CF91FF91EF91BF91AF919F91CB
S11301908F917F916F915F914F913F912F910F902C
S11301A000925F000F901F9018951F920F9200907D
S11301B05F000F9211242F933F934F935F936F939C
S11301C07F938F939F93AF93BF93EF93FF93CF93BB
S11301D0DF93CDB7DEB70E94BB030000DF91CF9160
S11301E0FF91EF91BF91AF919F918F917F916F910B
S11301F05F914F913F912F910F9000925F000F906C
S11302001F901895CF93DF93CDB7DEB7F89485E5AB
S113021090E021E0FC01208385E590E022E0FC01F0
S11302202083789484E290E0FC01108285E290E0DF
S11302302FEFFC01208387E290E027E230E0F90110
S113024020812860FC01208388E290E028E230E0ED
S1130250F9012081277FFC01208387E290E027E2D7
S113026030E0F90120812061FC01208388E290E0E4
S113027028E230E0F90120812F7EFC01208387E20F
S113028090E027E230E0F90120812062FC01208324
S113029087E080930A02F89482EC90E022EC30E04C
S11302A0F90120812660FC01208380EC90E020ECA1
S11302B030E0F90120812260FC01208384EC90E08D
S11302C02FECFC01208385EC90E0FC01108281EC92
S11302D090E021EC30E0F90120812061FC012083D1
S11302E081EC90E021EC30E0F90120812F76FC01D3
S11302F0208381EC90E021EC30E0F90120812F7D16
S1130300FC0120838FE190E090930C0280930B0218
S113031080E890E0FC01108281E890E0FC0110820A
S113032082E890E0FC01108281E890E021E830E06E
S1130330F90120812A7FFC0120838FE690E02FE6DB
S113034030E0F90120812D7FFC01208386E390E0D9
S113035026E330E0F90120812260FC01208360E083
S113036081E00E94E0030E9401047894A89586E04D
S113037090E088709927892B11F088E201C088E009
S113038096E09770892B982F88E10FB6F894A8957A
S1130390809360000FBE9093600010921002109240
S11303A00F0280910F02909110028034910518F58C
S11303B080910F0290911002059660910F02709146
S11303C0100241E051E0649F9001659F300D749FDD
S11303D0300D1124880F991F8E5F9E4FFC013183CD
S11303E0208380910F029091100201969093100245
S11303F080930F02D6CF81E090E090938D0180939B
S11304008C01A89580910401909105010196909327
S113041005018093040183E090E0909307018093A9
S1130420060180910C0190910D0190930901809334
S1130430080185E090E09093100280930F02809170
S11304400F029091100288349105F8F480910F0204
S113045090911002880F991F8E5F9E4FFC0180813E
S11304609181892B41F080910F0290911002909319
S11304700B0180930A0180910F0290911002019662
S11304809093100280930F02DACF80918C019091A7
S11304908D0121E08F3F9F4008F420E0222F30E0BF
S11304A083E290E0FC018081882F90E0807199279D
S11304B051E0181619060CF050E080918C019091CF
S11304C08D0141E0892B09F040E0852F8423882F9A
S11304D090E0822B932B21E0892B09F420E0222346
S11304E031F081E180935700E8950C9400008091ED
S11304F08C0190918D01892B09F483CF80918C011B
S113050090918D01029690930E0280930D0220919A
S113051006013091070180910D0290910E02281777
S1130520390709F06ECFF89480910D0290910E0274
S113053023E0FC0120935700E89587E590E0FC0157
S11305408081882F90E08170992721E0892B09F41C
S113055020E0222309F0F1CF1092100210920F0232
S113056020910F02309110028091000190910101BD
S11305702817390708F044C0409100015091010147
S113058080910D0290910E02489F9001499F300D79
S1130590589F300D112480910F0290911002820F08
S11305A0931F880F991F90931202809311028091D8
S11305B00F02909110020596880F991F8E5F9E4F2F
S11305C0FC018081918190931402809313028091A5
S11305D0110290911202209113023091140241E011
S11305E0FC01090140935700E895112480910F0202
S11305F09091100201969093100280930F02B0CF55
S113060080910D0290910E0225E0FC012093570089
S1130610E89587E590E0FC018081882F90E0817067
S1130620992721E0892B09F420E0222309F0F1CF56
S1130630789480910D0290910E0201969093070197
S11306408093060188E290E0FC018081882F90E08D
S11306508870992721E0892B09F020E0222309F4EE
S1130660D0CE88E290E028E230E0F901308120E148
S11306702327FC012083C5CE9091C60080911B02E4
S1130680813061F028F0823011F1833021F0089537
S11306900E94010408950E94010408951092160214
S11306A0109215022091150230911602A9014F5F94
S11306B05F4F5093160240931502F901E15EFD4F1E
S11306C0908382E080931B020E940104089520918C
S11306D01502309116022F3F310509F080F4209164
S11306E0150230911602A9014F5F5F4F5093160215
S11306F040931502F901E15EFD4F908303C083E04E
S113070080931B020E940104089580911C02882397
S113071019F0813031F0089560E081E00E94E00337
S113072008958091170290911802892BD1F0E091DD
S11307301902F0911A0280818093C60080911902F7
S113074090911A02019690931A0280931902809153
S11307501702909118020197909318028093170240
S1130760089583E00E94DA0360E081E00E94E003E0
S113077010921C02089580911B02882319F0823084
S113078029F007C080E00E94DA0303C081E00E94E0
S1130790DA03E1E8F0E080818A7F8083EFE6F0E02D
S11307A080818D7F808386B3826086BB81E0809365
S11307B01B02089591E090931D0280931E020895F8
S11307C0E1ECF0E0908198649083882321F08081AB
S11307D08069808305C0E1ECF0E080818F768083BE
S11307E0662349F0E1ECF0E080818862808388B17F
S11307F0886088B90895E1ECF0E080818F7D808382
S11308000895109285001092840080910B029091BB
S11308100C02892B69F0EFE6F0E08081826080832E
S113082080910B0290910C02909389008093880030
S1130830E1E8F0E08081856080830895F894FFCF3B
S1050840400072
S9030000FC
